{
  "contractName": "Play",
  "abi": [
    {
      "inputs": [],
      "payable": false,
      "stateMutability": "nonpayable",
      "type": "constructor"
    },
    {
      "anonymous": false,
      "inputs": [
        {
          "indexed": false,
          "internalType": "address",
          "name": "user",
          "type": "address"
        },
        {
          "indexed": false,
          "internalType": "uint256",
          "name": "amount",
          "type": "uint256"
        }
      ],
      "name": "Transfer",
      "type": "event"
    },
    {
      "constant": true,
      "inputs": [],
      "name": "age",
      "outputs": [
        {
          "internalType": "uint256",
          "name": "",
          "type": "uint256"
        }
      ],
      "payable": false,
      "stateMutability": "view",
      "type": "function"
    },
    {
      "constant": true,
      "inputs": [
        {
          "internalType": "uint256",
          "name": "",
          "type": "uint256"
        }
      ],
      "name": "arr",
      "outputs": [
        {
          "internalType": "uint256",
          "name": "",
          "type": "uint256"
        }
      ],
      "payable": false,
      "stateMutability": "view",
      "type": "function"
    },
    {
      "constant": true,
      "inputs": [
        {
          "internalType": "address",
          "name": "",
          "type": "address"
        }
      ],
      "name": "bids",
      "outputs": [
        {
          "internalType": "uint256",
          "name": "",
          "type": "uint256"
        }
      ],
      "payable": false,
      "stateMutability": "view",
      "type": "function"
    },
    {
      "constant": true,
      "inputs": [
        {
          "internalType": "uint256",
          "name": "",
          "type": "uint256"
        }
      ],
      "name": "digits",
      "outputs": [
        {
          "internalType": "uint256",
          "name": "",
          "type": "uint256"
        }
      ],
      "payable": false,
      "stateMutability": "view",
      "type": "function"
    },
    {
      "constant": true,
      "inputs": [],
      "name": "name",
      "outputs": [
        {
          "internalType": "string",
          "name": "",
          "type": "string"
        }
      ],
      "payable": false,
      "stateMutability": "view",
      "type": "function"
    },
    {
      "constant": true,
      "inputs": [],
      "name": "noOfContributors",
      "outputs": [
        {
          "internalType": "uint256",
          "name": "",
          "type": "uint256"
        }
      ],
      "payable": false,
      "stateMutability": "view",
      "type": "function"
    },
    {
      "constant": true,
      "inputs": [
        {
          "internalType": "uint256",
          "name": "",
          "type": "uint256"
        }
      ],
      "name": "records",
      "outputs": [
        {
          "internalType": "string",
          "name": "",
          "type": "string"
        }
      ],
      "payable": false,
      "stateMutability": "view",
      "type": "function"
    },
    {
      "constant": true,
      "inputs": [],
      "name": "title",
      "outputs": [
        {
          "internalType": "string",
          "name": "",
          "type": "string"
        }
      ],
      "payable": false,
      "stateMutability": "view",
      "type": "function"
    },
    {
      "constant": true,
      "inputs": [
        {
          "internalType": "address",
          "name": "_account",
          "type": "address"
        }
      ],
      "name": "balanceOf",
      "outputs": [
        {
          "internalType": "uint256",
          "name": "",
          "type": "uint256"
        }
      ],
      "payable": false,
      "stateMutability": "view",
      "type": "function"
    },
    {
      "constant": false,
      "inputs": [
        {
          "internalType": "uint256",
          "name": "_amount",
          "type": "uint256"
        }
      ],
      "name": "transfer",
      "outputs": [],
      "payable": false,
      "stateMutability": "nonpayable",
      "type": "function"
    },
    {
      "constant": false,
      "inputs": [
        {
          "internalType": "string",
          "name": "_name",
          "type": "string"
        }
      ],
      "name": "setName",
      "outputs": [],
      "payable": false,
      "stateMutability": "nonpayable",
      "type": "function"
    },
    {
      "constant": false,
      "inputs": [],
      "name": "contribute",
      "outputs": [],
      "payable": true,
      "stateMutability": "payable",
      "type": "function"
    },
    {
      "constant": false,
      "inputs": [
        {
          "internalType": "uint256",
          "name": "num",
          "type": "uint256"
        }
      ],
      "name": "addA",
      "outputs": [],
      "payable": false,
      "stateMutability": "nonpayable",
      "type": "function"
    },
    {
      "constant": false,
      "inputs": [],
      "name": "popA",
      "outputs": [],
      "payable": false,
      "stateMutability": "nonpayable",
      "type": "function"
    },
    {
      "constant": false,
      "inputs": [
        {
          "internalType": "string",
          "name": "rec",
          "type": "string"
        }
      ],
      "name": "addR",
      "outputs": [],
      "payable": false,
      "stateMutability": "nonpayable",
      "type": "function"
    },
    {
      "constant": true,
      "inputs": [],
      "name": "getArr",
      "outputs": [
        {
          "internalType": "uint256",
          "name": "",
          "type": "uint256"
        }
      ],
      "payable": false,
      "stateMutability": "view",
      "type": "function"
    }
  ],
  "bytecode": "0x60806040526040518060400160405280600481526020017f59656168000000000000000000000000000000000000000000000000000000008152506001908051906020019062000051929190620001ec565b506040518060400160405280600160ff168152602001600260ff1681525060059060026200008192919062000273565b5060405180604001604052806040518060400160405280600581526020017f436872697300000000000000000000000000000000000000000000000000000081525081526020016040518060400160405280600481526020017f416c616e00000000000000000000000000000000000000000000000000000000815250815250600690600262000113929190620002ca565b506040518060400160405280600260ff168152602001600460ff1681525060079060026200014392919062000331565b503480156200015157600080fd5b506040518060400160405280600581526020017f4a65727279000000000000000000000000000000000000000000000000000000815250600090805190602001906200019f929190620001ec565b50612710600960003373ffffffffffffffffffffffffffffffffffffffff1673ffffffffffffffffffffffffffffffffffffffff16815260200190815260200160002081905550620004a7565b828054600181600116156101000203166002900490600052602060002090601f016020900481019282601f106200022f57805160ff191683800117855562000260565b8280016001018555821562000260579182015b828111156200025f57825182559160200191906001019062000242565b5b5090506200026f91906200037b565b5090565b828054828255906000526020600020908101928215620002b7579160200282015b82811115620002b6578251829060ff1690559160200191906001019062000294565b5b509050620002c691906200037b565b5090565b8280548282559060005260206000209081019282156200031e579160200282015b828111156200031d5782518290805190602001906200030c929190620003a3565b5091602001919060010190620002eb565b5b5090506200032d91906200042a565b5090565b826002810192821562000368579160200282015b8281111562000367578251829060ff1690559160200191906001019062000345565b5b5090506200037791906200037b565b5090565b620003a091905b808211156200039c57600081600090555060010162000382565b5090565b90565b828054600181600116156101000203166002900490600052602060002090601f016020900481019282601f10620003e657805160ff191683800117855562000417565b8280016001018555821562000417579182015b8281111562000416578251825591602001919060010190620003f9565b5b5090506200042691906200037b565b5090565b6200045891905b808211156200045457600081816200044a91906200045b565b5060010162000431565b5090565b90565b50805460018160011615610100020316600290046000825580601f10620004835750620004a4565b601f016020900490600052602060002090810190620004a391906200037b565b5b50565b610cc580620004b76000396000f3fe6080604052600436106100f35760003560e01c806370a082311161008a578063c47f002711610059578063c47f0027146105c8578063d7bb99ba14610690578063efc195341461069a578063fb8cbced146106b1576100f3565b806370a082311461048a57806371e5ee5f146104ef5780637b23c90d1461053e57806391574b3c1461058d576100f3565b806334461067116100c657806334461067146102b65780634a79d50c1461036a5780634e260f6f146103fa57806362ea82db14610425576100f3565b806306fdde03146100f857806312514bba14610188578063262a9dff146101c35780632f0ce693146101ee575b600080fd5b34801561010457600080fd5b5061010d6106dc565b6040518080602001828103825283818151815260200191508051906020019080838360005b8381101561014d578082015181840152602081019050610132565b50505050905090810190601f16801561017a5780820380516001836020036101000a031916815260200191505b509250505060405180910390f35b34801561019457600080fd5b506101c1600480360360208110156101ab57600080fd5b810190808035906020019092919050505061077a565b005b3480156101cf57600080fd5b506101d8610880565b6040518082815260200191505060405180910390f35b3480156101fa57600080fd5b506102b46004803603602081101561021157600080fd5b810190808035906020019064010000000081111561022e57600080fd5b82018360208201111561024057600080fd5b8035906020019184600183028401116401000000008311171561026257600080fd5b91908080601f016020809104026020016040519081016040528093929190818152602001838380828437600081840152601f19601f820116905080830192505050505050509192919290505050610886565b005b3480156102c257600080fd5b506102ef600480360360208110156102d957600080fd5b81019080803590602001909291905050506108c8565b6040518080602001828103825283818151815260200191508051906020019080838360005b8381101561032f578082015181840152602081019050610314565b50505050905090810190601f16801561035c5780820380516001836020036101000a031916815260200191505b509250505060405180910390f35b34801561037657600080fd5b5061037f610981565b6040518080602001828103825283818151815260200191508051906020019080838360005b838110156103bf5780820151818401526020810190506103a4565b50505050905090810190601f1680156103ec5780820380516001836020036101000a031916815260200191505b509250505060405180910390f35b34801561040657600080fd5b5061040f610a1f565b6040518082815260200191505060405180910390f35b34801561043157600080fd5b506104746004803603602081101561044857600080fd5b81019080803573ffffffffffffffffffffffffffffffffffffffff169060200190929190505050610a25565b6040518082815260200191505060405180910390f35b34801561049657600080fd5b506104d9600480360360208110156104ad57600080fd5b81019080803573ffffffffffffffffffffffffffffffffffffffff169060200190929190505050610a3d565b6040518082815260200191505060405180910390f35b3480156104fb57600080fd5b506105286004803603602081101561051257600080fd5b8101908080359060200190929190505050610a86565b6040518082815260200191505060405180910390f35b34801561054a57600080fd5b506105776004803603602081101561056157600080fd5b8101908080359060200190929190505050610a9e565b6040518082815260200191505060405180910390f35b34801561059957600080fd5b506105c6600480360360208110156105b057600080fd5b8101908080359060200190929190505050610abf565b005b3480156105d457600080fd5b5061068e600480360360208110156105eb57600080fd5b810190808035906020019064010000000081111561060857600080fd5b82018360208201111561061a57600080fd5b8035906020019184600183028401116401000000008311171561063c57600080fd5b91908080601f016020809104026020016040519081016040528093929190818152602001838380828437600081840152601f19601f820116905080830192505050505050509192919290505050610aee565b005b610698610b08565b005b3480156106a657600080fd5b506106af610bbf565b005b3480156106bd57600080fd5b506106c6610be2565b6040518082815260200191505060405180910390f35b60008054600181600116156101000203166002900480601f0160208091040260200160405190810160405280929190818152602001828054600181600116156101000203166002900480156107725780601f1061074757610100808354040283529160200191610772565b820191906000526020600020905b81548152906001019060200180831161075557829003601f168201915b505050505081565b80600960003373ffffffffffffffffffffffffffffffffffffffff1673ffffffffffffffffffffffffffffffffffffffff16815260200190815260200160002054116107c557600080fd5b80600960003373ffffffffffffffffffffffffffffffffffffffff1673ffffffffffffffffffffffffffffffffffffffff168152602001908152602001600020600082825403925050819055507f69ca02dd4edd7bf0a4abb9ed3b7af3f14778db5d61921c7dc7cd545266326de23382604051808373ffffffffffffffffffffffffffffffffffffffff1673ffffffffffffffffffffffffffffffffffffffff1681526020018281526020019250505060405180910390a150565b60025481565b60068190806001815401808255809150509060018203906000526020600020016000909192909190915090805190602001906108c3929190610beb565b505050565b600681815481106108d557fe5b906000526020600020016000915090508054600181600116156101000203166002900480601f0160208091040260200160405190810160405280929190818152602001828054600181600116156101000203166002900480156109795780601f1061094e57610100808354040283529160200191610979565b820191906000526020600020905b81548152906001019060200180831161095c57829003601f168201915b505050505081565b60018054600181600116156101000203166002900480601f016020809104026020016040519081016040528092919081815260200182805460018160011615610100020316600290048015610a175780601f106109ec57610100808354040283529160200191610a17565b820191906000526020600020905b8154815290600101906020018083116109fa57829003601f168201915b505050505081565b60045481565b60036020528060005260406000206000915090505481565b6000600960008373ffffffffffffffffffffffffffffffffffffffff1673ffffffffffffffffffffffffffffffffffffffff168152602001908152602001600020549050919050565b60078160028110610a9357fe5b016000915090505481565b60058181548110610aab57fe5b906000526020600020016000915090505481565b600581908060018154018082558091505090600182039060005260206000200160009091929091909150555050565b8060009080519060200190610b04929190610beb565b5050565b60003411610b1557600080fd5b6000600360003373ffffffffffffffffffffffffffffffffffffffff1673ffffffffffffffffffffffffffffffffffffffff168152602001908152602001600020541415610bbd5734600360003373ffffffffffffffffffffffffffffffffffffffff1673ffffffffffffffffffffffffffffffffffffffff168152602001908152602001600020600082825401925050819055506004600081548092919060010191905055505b565b6005805480610bca57fe5b60019003818190600052602060002001600090559055565b60006002905090565b828054600181600116156101000203166002900490600052602060002090601f016020900481019282601f10610c2c57805160ff1916838001178555610c5a565b82800160010185558215610c5a579182015b82811115610c59578251825591602001919060010190610c3e565b5b509050610c679190610c6b565b5090565b610c8d91905b80821115610c89576000816000905550600101610c71565b5090565b9056fea265627a7a723158208ff01ba57a4cd012f07789d7661d13b82887e4ca2c3d80ddf100cfb8b97425e164736f6c63430005100032",
  "source": "pragma solidity >= 0.5.12;\n\ncontract Play {\n    string public name;\n    string public title = \"Yeah\";\n    uint public age;\n    mapping(address => uint) public bids;\n    uint public noOfContributors;\n    uint[] public digits = [1,2];\n    string[] public records = [\"Chris\", \"Alan\"];\n    uint[2] public arr = [2,4];\n    mapping(address => uint) balance;\n    \n    event Transfer(address user, uint amount);\n    \n    constructor() public {\n        name = \"Jerry\";\n        balance[msg.sender] = 10000;\n    }\n    \n    function balanceOf(address _account) public view returns(uint) {\n        return balance[_account];\n    }\n    \n    function transfer(uint _amount) public {\n        require(balance[msg.sender] > _amount);\n        balance[msg.sender] -= _amount;\n        emit Transfer(msg.sender, _amount);\n    }\n    \n    function setName(string memory _name) public {\n        name = _name;\n    }\n    \n    function contribute() payable public {\n        require(msg.value > 0);\n        if (bids[msg.sender] == 0) {\n            bids[msg.sender] += msg.value;\n            noOfContributors++;\n        }\n    }\n    \n    function addA(uint num) public {\n        digits.push(num);\n    }\n    \n    function popA() public {\n        digits.pop();\n    }\n    \n    function addR(string memory rec) public {\n        records.push(rec);\n    }\n    \n    function getArr() public view returns(uint) {\n        return arr.length;\n    }\n\n}",
  "sourcePath": "/Users/hendrylim/Coding/LAB/BLOCKCHAIN/shopping/src/contracts/Play.sol",
  "compiler": {
    "name": "solc",
    "version": "0.5.16+commit.9c3226ce.Emscripten.clang"
  },
  "schemaVersion": "3.0.19",
  "updatedAt": "2021-06-09T01:11:09.639Z",
  "networkType": "ethereum",
  "devdoc": {
    "methods": {}
  },
  "userdoc": {
    "methods": {}
  }
}